{
  "_format": "hh-sol-artifact-1",
  "contractName": "Token",
  "sourceName": "contracts/Token.sol",
  "abi": [
    {
      "inputs": [],
      "stateMutability": "nonpayable",
      "type": "constructor"
    },
    {
      "anonymous": false,
      "inputs": [
        {
          "indexed": true,
          "internalType": "address",
          "name": "_owner",
          "type": "address"
        },
        {
          "indexed": true,
          "internalType": "address",
          "name": "_spender",
          "type": "address"
        },
        {
          "indexed": false,
          "internalType": "uint256",
          "name": "_value",
          "type": "uint256"
        }
      ],
      "name": "Approval",
      "type": "event"
    },
    {
      "anonymous": false,
      "inputs": [
        {
          "indexed": true,
          "internalType": "address",
          "name": "previousOwner",
          "type": "address"
        },
        {
          "indexed": true,
          "internalType": "address",
          "name": "newOwner",
          "type": "address"
        }
      ],
      "name": "OwnershipTransferred",
      "type": "event"
    },
    {
      "anonymous": false,
      "inputs": [
        {
          "indexed": true,
          "internalType": "address",
          "name": "_from",
          "type": "address"
        },
        {
          "indexed": true,
          "internalType": "address",
          "name": "_to",
          "type": "address"
        },
        {
          "indexed": false,
          "internalType": "uint256",
          "name": "_value",
          "type": "uint256"
        }
      ],
      "name": "Transfer",
      "type": "event"
    },
    {
      "inputs": [
        {
          "internalType": "address",
          "name": "_owner",
          "type": "address"
        },
        {
          "internalType": "address",
          "name": "_spender",
          "type": "address"
        }
      ],
      "name": "allowance",
      "outputs": [
        {
          "internalType": "uint256",
          "name": "remaining",
          "type": "uint256"
        }
      ],
      "stateMutability": "view",
      "type": "function"
    },
    {
      "inputs": [
        {
          "internalType": "address",
          "name": "_spender",
          "type": "address"
        },
        {
          "internalType": "uint256",
          "name": "_value",
          "type": "uint256"
        }
      ],
      "name": "approve",
      "outputs": [
        {
          "internalType": "bool",
          "name": "success",
          "type": "bool"
        }
      ],
      "stateMutability": "nonpayable",
      "type": "function"
    },
    {
      "inputs": [
        {
          "internalType": "address",
          "name": "_owner",
          "type": "address"
        }
      ],
      "name": "balanceOf",
      "outputs": [
        {
          "internalType": "uint256",
          "name": "balance",
          "type": "uint256"
        }
      ],
      "stateMutability": "view",
      "type": "function"
    },
    {
      "inputs": [],
      "name": "decimals",
      "outputs": [
        {
          "internalType": "uint8",
          "name": "",
          "type": "uint8"
        }
      ],
      "stateMutability": "view",
      "type": "function"
    },
    {
      "inputs": [
        {
          "internalType": "uint256",
          "name": "_value",
          "type": "uint256"
        },
        {
          "internalType": "address",
          "name": "_to",
          "type": "address"
        }
      ],
      "name": "mint",
      "outputs": [],
      "stateMutability": "nonpayable",
      "type": "function"
    },
    {
      "inputs": [],
      "name": "name",
      "outputs": [
        {
          "internalType": "string",
          "name": "",
          "type": "string"
        }
      ],
      "stateMutability": "view",
      "type": "function"
    },
    {
      "inputs": [],
      "name": "owner",
      "outputs": [
        {
          "internalType": "address",
          "name": "",
          "type": "address"
        }
      ],
      "stateMutability": "view",
      "type": "function"
    },
    {
      "inputs": [],
      "name": "renounceOwnership",
      "outputs": [],
      "stateMutability": "nonpayable",
      "type": "function"
    },
    {
      "inputs": [],
      "name": "symbol",
      "outputs": [
        {
          "internalType": "string",
          "name": "",
          "type": "string"
        }
      ],
      "stateMutability": "view",
      "type": "function"
    },
    {
      "inputs": [],
      "name": "totalSupply",
      "outputs": [
        {
          "internalType": "uint256",
          "name": "",
          "type": "uint256"
        }
      ],
      "stateMutability": "view",
      "type": "function"
    },
    {
      "inputs": [
        {
          "internalType": "address",
          "name": "_to",
          "type": "address"
        },
        {
          "internalType": "uint256",
          "name": "_value",
          "type": "uint256"
        }
      ],
      "name": "transfer",
      "outputs": [
        {
          "internalType": "bool",
          "name": "success",
          "type": "bool"
        }
      ],
      "stateMutability": "nonpayable",
      "type": "function"
    },
    {
      "inputs": [
        {
          "internalType": "address",
          "name": "_from",
          "type": "address"
        },
        {
          "internalType": "address",
          "name": "_to",
          "type": "address"
        },
        {
          "internalType": "uint256",
          "name": "_value",
          "type": "uint256"
        }
      ],
      "name": "transferFrom",
      "outputs": [
        {
          "internalType": "bool",
          "name": "success",
          "type": "bool"
        }
      ],
      "stateMutability": "nonpayable",
      "type": "function"
    },
    {
      "inputs": [
        {
          "internalType": "address",
          "name": "newOwner",
          "type": "address"
        }
      ],
      "name": "transferOwnership",
      "outputs": [],
      "stateMutability": "nonpayable",
      "type": "function"
    }
  ],
  "bytecode": "0x60806040523480156200001157600080fd5b506200003262000026620001d860201b60201c565b620001e060201b60201c565b6040518060400160405280600381526020017f4b31580000000000000000000000000000000000000000000000000000000000815250600390816200007891906200051e565b506040518060400160405280600581526020017f6b3178316b00000000000000000000000000000000000000000000000000000081525060049081620000bf91906200051e565b506012600560006101000a81548160ff021916908360ff16021790555068120d4da7b0bd14000060068190555068120d4da7b0bd14000060016000738c00b23082b11fcdc331dc3f99948741659f962d73ffffffffffffffffffffffffffffffffffffffff1673ffffffffffffffffffffffffffffffffffffffff16815260200190815260200160002081905550738c00b23082b11fcdc331dc3f99948741659f962d73ffffffffffffffffffffffffffffffffffffffff16600073ffffffffffffffffffffffffffffffffffffffff167fddf252ad1be2c89b69c2b068fc378daa952ba7f163c4a11628f55a4df523b3ef68120d4da7b0bd140000604051620001ca919062000648565b60405180910390a362000665565b600033905090565b60008060009054906101000a900473ffffffffffffffffffffffffffffffffffffffff169050816000806101000a81548173ffffffffffffffffffffffffffffffffffffffff021916908373ffffffffffffffffffffffffffffffffffffffff1602179055508173ffffffffffffffffffffffffffffffffffffffff168173ffffffffffffffffffffffffffffffffffffffff167f8be0079c531659141344cd1fd0a4f28419497f9722a3daafe3b4186f6b6457e060405160405180910390a35050565b600081519050919050565b7f4e487b7100000000000000000000000000000000000000000000000000000000600052604160045260246000fd5b7f4e487b7100000000000000000000000000000000000000000000000000000000600052602260045260246000fd5b600060028204905060018216806200032657607f821691505b6020821081036200033c576200033b620002de565b5b50919050565b60008190508160005260206000209050919050565b60006020601f8301049050919050565b600082821b905092915050565b600060088302620003a67fffffffffffffffffffffffffffffffffffffffffffffffffffffffffffffffff8262000367565b620003b2868362000367565b95508019841693508086168417925050509392505050565b6000819050919050565b6000819050919050565b6000620003ff620003f9620003f384620003ca565b620003d4565b620003ca565b9050919050565b6000819050919050565b6200041b83620003de565b620004336200042a8262000406565b84845462000374565b825550505050565b600090565b6200044a6200043b565b6200045781848462000410565b505050565b5b818110156200047f576200047360008262000440565b6001810190506200045d565b5050565b601f821115620004ce57620004988162000342565b620004a38462000357565b81016020851015620004b3578190505b620004cb620004c28562000357565b8301826200045c565b50505b505050565b600082821c905092915050565b6000620004f360001984600802620004d3565b1980831691505092915050565b60006200050e8383620004e0565b9150826002028217905092915050565b6200052982620002a4565b67ffffffffffffffff811115620005455762000544620002af565b5b6200055182546200030d565b6200055e82828562000483565b600060209050601f83116001811462000596576000841562000581578287015190505b6200058d858262000500565b865550620005fd565b601f198416620005a68662000342565b60005b82811015620005d057848901518255600182019150602085019450602081019050620005a9565b86831015620005f05784890151620005ec601f891682620004e0565b8355505b6001600288020188555050505b505050505050565b6000819050919050565b6000620006306200062a620006248462000605565b620003d4565b620003ca565b9050919050565b62000642816200060f565b82525050565b60006020820190506200065f600083018462000637565b92915050565b61196480620006756000396000f3fe608060405234801561001057600080fd5b50600436106100cf5760003560e01c8063715018a61161008c57806395d89b411161006657806395d89b4114610202578063a9059cbb14610220578063dd62ed3e14610250578063f2fde38b14610280576100cf565b8063715018a6146101be5780638da5cb5b146101c857806394bf804d146101e6576100cf565b806306fdde03146100d4578063095ea7b3146100f257806318160ddd1461012257806323b872dd14610140578063313ce5671461017057806370a082311461018e575b600080fd5b6100dc61029c565b6040516100e991906111cf565b60405180910390f35b61010c6004803603810190610107919061128a565b61032a565b60405161011991906112e5565b60405180910390f35b61012a61045e565b604051610137919061130f565b60405180910390f35b61015a6004803603810190610155919061132a565b610468565b60405161016791906112e5565b60405180910390f35b6101786108f1565b6040516101859190611399565b60405180910390f35b6101a860048036038101906101a391906113b4565b610904565b6040516101b5919061130f565b60405180910390f35b6101c661094d565b005b6101d0610961565b6040516101dd91906113f0565b60405180910390f35b61020060048036038101906101fb919061140b565b61098a565b005b61020a610b50565b60405161021791906111cf565b60405180910390f35b61023a6004803603810190610235919061128a565b610bde565b60405161024791906112e5565b60405180910390f35b61026a6004803603810190610265919061144b565b610eeb565b604051610277919061130f565b60405180910390f35b61029a600480360381019061029591906113b4565b610f72565b005b600480546102a9906114ba565b80601f01602080910402602001604051908101604052809291908181526020018280546102d5906114ba565b80156103225780601f106102f757610100808354040283529160200191610322565b820191906000526020600020905b81548152906001019060200180831161030557829003601f168201915b505050505081565b600080821161036e576040517f08c379a000000000000000000000000000000000000000000000000000000000815260040161036590611537565b60405180910390fd5b81600260003373ffffffffffffffffffffffffffffffffffffffff1673ffffffffffffffffffffffffffffffffffffffff16815260200190815260200160002060008573ffffffffffffffffffffffffffffffffffffffff1673ffffffffffffffffffffffffffffffffffffffff168152602001908152602001600020819055508273ffffffffffffffffffffffffffffffffffffffff163373ffffffffffffffffffffffffffffffffffffffff167f8c5be1e5ebec7d5bd14f71427d1e84f3dd0314c0f7b2291e5b200ac8c7c3b9258460405161044c919061130f565b60405180910390a36001905092915050565b6000600654905090565b60008073ffffffffffffffffffffffffffffffffffffffff168373ffffffffffffffffffffffffffffffffffffffff16036104d8576040517f08c379a00000000000000000000000000000000000000000000000000000000081526004016104cf906115a3565b60405180910390fd5b600160008573ffffffffffffffffffffffffffffffffffffffff1673ffffffffffffffffffffffffffffffffffffffff1681526020019081526020016000205482111561055a576040517f08c379a00000000000000000000000000000000000000000000000000000000081526004016105519061160f565b60405180910390fd5b600260008573ffffffffffffffffffffffffffffffffffffffff1673ffffffffffffffffffffffffffffffffffffffff16815260200190815260200160002060003373ffffffffffffffffffffffffffffffffffffffff1673ffffffffffffffffffffffffffffffffffffffff16815260200190815260200160002054821115610619576040517f08c379a00000000000000000000000000000000000000000000000000000000081526004016106109061167b565b60405180910390fd5b600082101561065d576040517f08c379a000000000000000000000000000000000000000000000000000000000815260040161065490611537565b60405180910390fd5b81600160008673ffffffffffffffffffffffffffffffffffffffff1673ffffffffffffffffffffffffffffffffffffffff168152602001908152602001600020546106a891906116ca565b600160008673ffffffffffffffffffffffffffffffffffffffff1673ffffffffffffffffffffffffffffffffffffffff1681526020019081526020016000208190555081600260008673ffffffffffffffffffffffffffffffffffffffff1673ffffffffffffffffffffffffffffffffffffffff16815260200190815260200160002060003373ffffffffffffffffffffffffffffffffffffffff1673ffffffffffffffffffffffffffffffffffffffff1681526020019081526020016000205461077391906116ca565b600260008673ffffffffffffffffffffffffffffffffffffffff1673ffffffffffffffffffffffffffffffffffffffff16815260200190815260200160002060003373ffffffffffffffffffffffffffffffffffffffff1673ffffffffffffffffffffffffffffffffffffffff1681526020019081526020016000208190555081600160008573ffffffffffffffffffffffffffffffffffffffff1673ffffffffffffffffffffffffffffffffffffffff1681526020019081526020016000205461083e91906116fe565b600160008573ffffffffffffffffffffffffffffffffffffffff1673ffffffffffffffffffffffffffffffffffffffff168152602001908152602001600020819055508273ffffffffffffffffffffffffffffffffffffffff168473ffffffffffffffffffffffffffffffffffffffff167fddf252ad1be2c89b69c2b068fc378daa952ba7f163c4a11628f55a4df523b3ef846040516108de919061130f565b60405180910390a3600190509392505050565b600560009054906101000a900460ff1681565b6000600160008373ffffffffffffffffffffffffffffffffffffffff1673ffffffffffffffffffffffffffffffffffffffff168152602001908152602001600020549050919050565b610955610ff5565b61095f6000611073565b565b60008060009054906101000a900473ffffffffffffffffffffffffffffffffffffffff16905090565b610992610ff5565b600082036109d5576040517f08c379a00000000000000000000000000000000000000000000000000000000081526004016109cc90611537565b60405180910390fd5b600073ffffffffffffffffffffffffffffffffffffffff168173ffffffffffffffffffffffffffffffffffffffff1603610a44576040517f08c379a0000000000000000000000000000000000000000000000000000000008152600401610a3b9061177e565b60405180910390fd5b81600654610a5291906116fe565b60068190555081600160008373ffffffffffffffffffffffffffffffffffffffff1673ffffffffffffffffffffffffffffffffffffffff16815260200190815260200160002054610aa391906116fe565b600160008373ffffffffffffffffffffffffffffffffffffffff1673ffffffffffffffffffffffffffffffffffffffff168152602001908152602001600020819055508073ffffffffffffffffffffffffffffffffffffffff16600073ffffffffffffffffffffffffffffffffffffffff167fddf252ad1be2c89b69c2b068fc378daa952ba7f163c4a11628f55a4df523b3ef84604051610b44919061130f565b60405180910390a35050565b60038054610b5d906114ba565b80601f0160208091040260200160405190810160405280929190818152602001828054610b89906114ba565b8015610bd65780601f10610bab57610100808354040283529160200191610bd6565b820191906000526020600020905b815481529060010190602001808311610bb957829003601f168201915b505050505081565b60008073ffffffffffffffffffffffffffffffffffffffff168373ffffffffffffffffffffffffffffffffffffffff1603610c4e576040517f08c379a0000000000000000000000000000000000000000000000000000000008152600401610c45906115a3565b60405180910390fd5b600160003373ffffffffffffffffffffffffffffffffffffffff1673ffffffffffffffffffffffffffffffffffffffff16815260200190815260200160002054821115610cd0576040517f08c379a0000000000000000000000000000000000000000000000000000000008152600401610cc79061160f565b60405180910390fd5b6000821015610d14576040517f08c379a0000000000000000000000000000000000000000000000000000000008152600401610d0b90611537565b60405180910390fd5b6801158e460913d00000821115610d60576040517f08c379a0000000000000000000000000000000000000000000000000000000008152600401610d5790611810565b60405180910390fd5b81600160003373ffffffffffffffffffffffffffffffffffffffff1673ffffffffffffffffffffffffffffffffffffffff16815260200190815260200160002054610dab91906116ca565b600160003373ffffffffffffffffffffffffffffffffffffffff1673ffffffffffffffffffffffffffffffffffffffff1681526020019081526020016000208190555081600160008573ffffffffffffffffffffffffffffffffffffffff1673ffffffffffffffffffffffffffffffffffffffff16815260200190815260200160002054610e3991906116fe565b600160008573ffffffffffffffffffffffffffffffffffffffff1673ffffffffffffffffffffffffffffffffffffffff168152602001908152602001600020819055508273ffffffffffffffffffffffffffffffffffffffff163373ffffffffffffffffffffffffffffffffffffffff167fddf252ad1be2c89b69c2b068fc378daa952ba7f163c4a11628f55a4df523b3ef84604051610ed9919061130f565b60405180910390a36001905092915050565b6000600260008473ffffffffffffffffffffffffffffffffffffffff1673ffffffffffffffffffffffffffffffffffffffff16815260200190815260200160002060008373ffffffffffffffffffffffffffffffffffffffff1673ffffffffffffffffffffffffffffffffffffffff16815260200190815260200160002054905092915050565b610f7a610ff5565b600073ffffffffffffffffffffffffffffffffffffffff168173ffffffffffffffffffffffffffffffffffffffff1603610fe9576040517f08c379a0000000000000000000000000000000000000000000000000000000008152600401610fe0906118a2565b60405180910390fd5b610ff281611073565b50565b610ffd611137565b73ffffffffffffffffffffffffffffffffffffffff1661101b610961565b73ffffffffffffffffffffffffffffffffffffffff1614611071576040517f08c379a00000000000000000000000000000000000000000000000000000000081526004016110689061190e565b60405180910390fd5b565b60008060009054906101000a900473ffffffffffffffffffffffffffffffffffffffff169050816000806101000a81548173ffffffffffffffffffffffffffffffffffffffff021916908373ffffffffffffffffffffffffffffffffffffffff1602179055508173ffffffffffffffffffffffffffffffffffffffff168173ffffffffffffffffffffffffffffffffffffffff167f8be0079c531659141344cd1fd0a4f28419497f9722a3daafe3b4186f6b6457e060405160405180910390a35050565b600033905090565b600081519050919050565b600082825260208201905092915050565b60005b8381101561117957808201518184015260208101905061115e565b60008484015250505050565b6000601f19601f8301169050919050565b60006111a18261113f565b6111ab818561114a565b93506111bb81856020860161115b565b6111c481611185565b840191505092915050565b600060208201905081810360008301526111e98184611196565b905092915050565b600080fd5b600073ffffffffffffffffffffffffffffffffffffffff82169050919050565b6000611221826111f6565b9050919050565b61123181611216565b811461123c57600080fd5b50565b60008135905061124e81611228565b92915050565b6000819050919050565b61126781611254565b811461127257600080fd5b50565b6000813590506112848161125e565b92915050565b600080604083850312156112a1576112a06111f1565b5b60006112af8582860161123f565b92505060206112c085828601611275565b9150509250929050565b60008115159050919050565b6112df816112ca565b82525050565b60006020820190506112fa60008301846112d6565b92915050565b61130981611254565b82525050565b60006020820190506113246000830184611300565b92915050565b600080600060608486031215611343576113426111f1565b5b60006113518682870161123f565b93505060206113628682870161123f565b925050604061137386828701611275565b9150509250925092565b600060ff82169050919050565b6113938161137d565b82525050565b60006020820190506113ae600083018461138a565b92915050565b6000602082840312156113ca576113c96111f1565b5b60006113d88482850161123f565b91505092915050565b6113ea81611216565b82525050565b600060208201905061140560008301846113e1565b92915050565b60008060408385031215611422576114216111f1565b5b600061143085828601611275565b92505060206114418582860161123f565b9150509250929050565b60008060408385031215611462576114616111f1565b5b60006114708582860161123f565b92505060206114818582860161123f565b9150509250929050565b7f4e487b7100000000000000000000000000000000000000000000000000000000600052602260045260246000fd5b600060028204905060018216806114d257607f821691505b6020821081036114e5576114e461148b565b5b50919050565b7f76616c7565206d7573742062652067726561746572207468616e203000000000600082015250565b6000611521601c8361114a565b915061152c826114eb565b602082019050919050565b6000602082019050818103600083015261155081611514565b9050919050565b7f7472616e7366657220746f207a65726f20616464726573730000000000000000600082015250565b600061158d60188361114a565b915061159882611557565b602082019050919050565b600060208201905081810360008301526115bc81611580565b9050919050565b7f6e6f7420656e6f7567682062616c616e63650000000000000000000000000000600082015250565b60006115f960128361114a565b9150611604826115c3565b602082019050919050565b60006020820190508181036000830152611628816115ec565b9050919050565b7f6e6f7420656e6f75676820616c6c6f77616e6365000000000000000000000000600082015250565b600061166560148361114a565b91506116708261162f565b602082019050919050565b6000602082019050818103600083015261169481611658565b9050919050565b7f4e487b7100000000000000000000000000000000000000000000000000000000600052601160045260246000fd5b60006116d582611254565b91506116e083611254565b92508282039050818111156116f8576116f761169b565b5b92915050565b600061170982611254565b915061171483611254565b925082820190508082111561172c5761172b61169b565b5b92915050565b7f6d696e7420746f207a65726f2061646472657373000000000000000000000000600082015250565b600061176860148361114a565b915061177382611732565b602082019050919050565b600060208201905081810360008301526117978161175b565b9050919050565b7f76616c7565206d757374206265206c657373207468616e206f7220657175616c60008201527f20746f2032300000000000000000000000000000000000000000000000000000602082015250565b60006117fa60268361114a565b91506118058261179e565b604082019050919050565b60006020820190508181036000830152611829816117ed565b9050919050565b7f4f776e61626c653a206e6577206f776e657220697320746865207a65726f206160008201527f6464726573730000000000000000000000000000000000000000000000000000602082015250565b600061188c60268361114a565b915061189782611830565b604082019050919050565b600060208201905081810360008301526118bb8161187f565b9050919050565b7f4f776e61626c653a2063616c6c6572206973206e6f7420746865206f776e6572600082015250565b60006118f860208361114a565b9150611903826118c2565b602082019050919050565b60006020820190508181036000830152611927816118eb565b905091905056fea26469706673582212203cf6ff9de1bf408de88a8cb20c6e67b4f6b81612c3ec76eeac0b5c5c7258aa7c64736f6c63430008110033",
  "linkReferences": {},
  "deployedLinkReferences": {}
}